:100000000C94A4000C94CC000C94CC000C94CC0068
:100010000C94CC000C94CC000C94CC000C94CC0030
:100020000C94CC000C94CC000C94CC000C94CC0020
:100030000C94CC000C94CC000C94CC000C94CC0010
:100040000C945A070C94CC000C94000A0C94CC002D
:100050000C94CC000C94CC000C94CC000C94CC00F0
:100060000C94CC000C94CC0007634236B79BD8A705
:100070001A39685618AEBAAB558C1D3CB7CC5763CD
:10008000BD6DEDFD753EF6177231BF000000803F7B
:1000900008000000BE922449123EABAAAA2ABECD97
:1000A000CCCC4C3E00000080BEABAAAAAA3E000009
:1000B0000000BF000000803F000000000008417801
:1000C000D3BB4387D1133D190E3CC3BD4282AD2B38
:1000D0003E68EC8276BED98FE1A93E4C80EFFFBE30
:1000E00001C4FF7F3F00000000000000000024006A
:1000F00027002A0000000000250028002B00000037
:10010000000023002600290004040404040404045D
:1001100002020202020203030303030301020408B2
:100120001020408001020408102001020408102061
:1001300000000007000201000003040600000000A8
:1001400000000000FF06820B11241FBECFEFD8E095
:10015000DEBFCDBF11E0A0E0B1E0EAE6FCE302C003
:1001600005900D92AE34B107D9F712E0AEE4B1E0DC
:1001700001C01D92A739B107E1F711E0C8E4D1E051
:1001800004C02297FE010E94D31AC434D107C9F7D4
:100190000E9445070C94331E0C940000DC01FC0106
:1001A000EF57FF4F29E030E02150304080819181AE
:1001B00093838283329721153105B1F7AF58BF4F32
:1001C0006D937C930895FC018AE090E094AF83AF37
:1001D00096AF85AFFF96819391938193919381938D
:1001E0009193918380830895FC018AE090E096AB1F
:1001F00085AB90AF87AB92AF81AF0895FC0186814C
:10020000882319F487E090E002C088E090E0DF01E5
:10021000D59620E030E0AC01465050406AE070E0F6
:1002200027C08D919C911197892BF1F083AD94ADEE
:10023000892B21F52AE030E034AF23AF85AD96ADB0
:10024000892BE1F436AF25AFDF01DF968D919C91CC
:100250001197892B99F42D933C93EF5BFF4F80818D
:100260009181892B49F008956D937D932F5F3F4FC6
:1002700024173507B4F2DACF318320830895FC01C7
:10028000EF58FF4F80E090E01192119201968A3072
:100290009105D1F70895BF92CF92DF92EF92FF922E
:1002A0000F931F93CF93DF93E62EF42EB22EC0E070
:1002B000D0E010E087E0C82ED12CBB2041F4B8017B
:1002C0000C2E02C0759567950A94E2F70AC0B60134
:1002D0006C1B7D0BC80102C0959587956A95E2F766
:1002E000BC01617070708E2D0E94190961E070E090
:1002F00080E090E00E94D6078F2D61E00E941909EE
:1003000061E070E080E090E00E94D6078F2D60E011
:100310000E94190961E070E080E090E00E94D60739
:100320002196C830D10549F6DF91CF911F910F91E9
:10033000FF90EF90DF90CF90BF900895EF92FF92E3
:100340000F931F93CF93DF938C01EC01E596FE0191
:1003500040E050E022893389808191812817390754
:1003600019F0FF24F39407C04F5F5F4F3296493076
:10037000510581F7FF24C8010E94FE00FF2009F407
:1003800043C0D8018C9160E00E94190961E070E0DF
:1003900080E090E00E94D60797E4E92EF12CE00E71
:1003A000F11EE881F981E00FF11FD80114968C91BC
:1003B000149712966C9141E022A50E947E096881F3
:1003C00079818FE792E04AE050E00E94250D8FE7A7
:1003D00092E060E071E00E94F30B888199819B8B31
:1003E0008A8B2296CE15DF05E1F68FE792E00E9418
:1003F0004A0DF801808161E00E94190961E070E016
:1004000080E090E00E94D607DF91CF911F910F917D
:10041000FF90EF900895CF92DF92EF92FF920F93AB
:100420001F93CF93DF93FC018681882361F4CB0176
:100430009B01A3E0220F331FAA95E1F7880F991FB4
:10044000280F391FB9017B0177FF02C0EE24FF247A
:1004500069E3C62ED12CCE0EDF1E8601EAE0F0E065
:10046000C0E0D0E020E030E0C701BF010E946D1A7B
:100470008C1B9D0BD8018D939C93C80FD91FCF0166
:10048000880F991F43E0EE0FFF1F4A95E1F7E80F31
:10049000F91F2F5F3F4F025010402330310521F7E5
:1004A000C0E0D0E0BE01882777FD8095982F0E949C
:1004B000A6179B01AC0160E070E080E291E40E942D
:1004C000C6187B018C01F60160817181882777FD58
:1004D0008095982F0E94A617A80197010E940A17DD
:1004E0000E947317D6016D937C932196EEEFFFEF78
:1004F000CE0EDF1EC330D105A9F6DF91CF911F913B
:100500000F91FF90EF90DF90CF9008952F923F9240
:100510004F925F926F927F928F929F92AF92BF9213
:10052000CF92DF92EF92FF920F931F93DF93CF93BF
:10053000CDB7DEB728970FB6F894DEBF0FBECDBF9C
:100540008C01CB01BA012AE030E040E050E00E948B
:100550004E1AAC01CB01DA0189839A83AB83BC8349
:10056000B7FF04C019821A821B821C8298012B5B80
:100570003F4F3E832D83BAE06B2E712C812C912C42
:1005800022243324210118861F8269817A818B817C
:100590009C81A40193010E94A21A5B016C01A21824
:1005A000B308C408D5082A0C3B1C4C1C5D1CC401B4
:1005B000B3012AE030E040E050E00E944E1A3B01D7
:1005C0004C01AF81B885BD01882777FD8095982FB4
:1005D0000E94A6179B01AC0160E070E080E291E40C
:1005E0000E94C6187B018C01C601B5010E94A617A6
:1005F000A80197010E940A170E947317ED81FE81DE
:10060000718360832F8138852F5F3F4F38872F8319
:100610003297FE83ED832630310509F0B6CF289658
:100620000FB6F894DEBF0FBECDBFCF91DF911F9103
:100630000F91FF90EF90DF90CF90BF90AF909F9081
:100640008F907F906F905F904F903F902F90089584
:10065000AF92BF92CF92DF92EF92FF921F93CF9310
:10066000DF93EC01162FFC01E956FF4F6081718189
:10067000828193810E9473170E94A6176B017C01EF
:1006800021EE3AE74CE450E40E94C6189B01AC010D
:100690008FE9A82EB12CAC0EBD1ECA01B90127E10D
:1006A00037EB41ED5AE30E945B180E947317F50186
:1006B00060837183828393831130C9F4C701B601CB
:1006C00021EE3AE74CE450E40E94C6189B01AC01CD
:1006D000CA01B90123EE3BE247E65BE30E945B18E7
:1006E0000E947317F5016083718382839383FE01F7
:1006F000E156FF4F6081718182819381DF91CF91BB
:100700001F91FF90EF90DF90CF90BF90AF90089532
:10071000CF93DF93EC01FC01EF58FF4F60E074E0F2
:1007200020E030E040E050E08081918128173907D7
:100730000CF49C01861797070CF4BC014F5F5F4FC8
:1007400032964A30510581F7261B370B2B30310585
:1007500014F480E007C00E94A2076A8F7B8F8C8F01
:100760009D8F81E0DF91CF910895AF92BF92CF929C
:10077000DF92EF92FF920F931F93CF93DF93EC01E1
:10078000AE8CBF8CC8A0D9A06B857C85882777FDEF
:100790008095982F0E94A617A60195010E949C168D
:1007A0007B018C016AA17BA18CA19DA1A601950171
:1007B0000E949C169B01AC01C801B7010E940A1758
:1007C0002EA13FA148A559A50E945B187B018C0171
:1007D00020E030E040E050E00E945718181654F036
:1007E0000F2EF0E0EF2EF0E0FF2EF0E00F2FF0E004
:1007F0001F2FF02DC956DF4FE882F9820A831B8331
:10080000C759D040CAA0ABA0DCA0BDA0C801B701A9
:100810002C2D3A2D4D2D5B2D0E94061787FD06C00D
:100820008C2D9A2DAD2DBB2D7C018D0127E9C22E7B
:10083000D12CCC0EDD1EF601E082F18202831383FF
:10084000C801B70120E030E040E45FE30E945B189C
:100850007B018C019BE9A92EB12CAC0EBD1EF501CC
:10086000608171818281938120E030E040E85EE325
:100870000E945B189B01AC01C801B7010E949D1644
:10088000F60160837183828393838FE792E062E055
:1008900071E00E94F30BF601608171818281938186
:1008A0000E9473179B01AC018FE792E0B9014AE007
:1008B00050E00E94C00DF6016081718182819381B8
:1008C0000E9473179B01AC01CE01B9010E940B027B
:1008D000F60180819181A281B381F50180839183AA
:1008E000A283B383DF91CF911F910F91FF90EF907F
:1008F000DF90CF90BF90AF900895CF93DF93EC013E
:100900008EE00E944408AC019C878B87FE01EF5764
:10091000FF4F29E030E02150304080819181938366
:100920008283329721153105B1F7CF58DF4F5983B4
:100930004883DF91CF9108950F931F93CF93DF9357
:10094000EC018B010E947D04FE01F59680E090E0B1
:1009500001931193019689309105D1F7FE01EF586B
:10096000FF4F9E012B573F4F8B859C858193919321
:10097000E217F307C9F7DF91CF911F910F91089507
:10098000AF92BF92CF92DF92EF92FF920F931F939D
:10099000CF93DF93EC0100E010E055E3E52EF12C5E
:1009A000E80EF91E4AE0A42EB12C31E0C32ED12C62
:1009B0001BC0081719071CF0D182C08202C0B18287
:1009C000A082019632968930910599F764E670E02D
:1009D00080E090E00E94D607CE010E949E010F5F4A
:1009E0001F4F0930110521F0F70180E090E0E1CFC1
:1009F000CE0168E070E00E949C04CE010E949E013E
:100A0000CE016AE070E00E949C04CE010E949E012B
:100A100068EC70E080E090E00E94D607CE0168E0CC
:100A200070E00E949C04CE010E949E0168EC70E080
:100A300080E090E00E94D607CE016AE070E00E945C
:100A40009C04CE010E949E0168EC70E080E090E082
:100A50000E94D607DF91CF911F910F91FF90EF90E9
:100A6000DF90CF90BF90AF9008950F931F938C01AC
:100A7000FC0181890E944E09F801968B858B878540
:100A80000E944E09F801948B838B1F910F9108955A
:100A9000CF92EF92CF93DF93EC01798368835B83EE
:100AA0004A833D832C83EE8218861F828EE090E07D
:100AB0009A8789871C861B861E861D8682E090E0A9
:100AC000988B8F8783E090E09A8B898B1C8A1B8A96
:100AD0001E8A1D8A8FEF9FEF988F8F8B81E0898F01
:100AE0001A8E1B8E1C8E1D8E80E090E0A0E0B0E080
:100AF0008E8F9F8FA8A3B9A38AA39BA3ACA3BDA3EA
:100B00008EA39FA3A8A7B9A7C75ADF4F20E82993B0
:100B1000C882AB9689939993A993B9938993999332
:100B2000A993B9931992199281E090E089939993CE
:100B3000899399931992199219821882C559D040B4
:100B4000EE20A9F480E090E0ACE7B2E48E8F9F8FB6
:100B5000A8A3B9A380E090E4ADE4B4E48AA39BA386
:100B6000ACA3BDA380E090E0A6ECB2E414C080E0AA
:100B700090E0AAE9B2E48E8F9F8FA8A3B9A380E08A
:100B800090ECAFE6B4E48AA39BA3ACA3BDA380E042
:100B900090E0ADE2B3E48EA39FA3A8A7B9A78FE727
:100BA00092E040E855E260E070E00E94910A88819E
:100BB00061E00E94C6088A8161E00E94C6088C81BB
:100BC00061E00E94C6088F8560E00E94C60889899E
:100BD00060E00E94C6088F8561E00E94190989893A
:100BE00061E00E94190985E08BA78BE58CA78FE453
:100BF0008DA785E68EA78EE68FA78EE788AB87E068
:100C000089AB8FE78AAB8FE68BAB8FE38AA71CAAF1
:100C1000FE01EF58FF4F80E090E011921192019693
:100C20008A309105D1F7CD55DF4F1882DF91CF91F2
:100C3000EF90CF900895CF92EF92CF93DF93EC0196
:100C4000798368835B834A833D832C83EE82188695
:100C50001F828EE090E09A8789871C861B861E86FD
:100C60001D8682E090E0988B8F8783E090E09A8BDE
:100C7000898B1C8A1B8A1E8A1D8A8FEF9FEF988F93
:100C80008F8B81E0898F1A8E1B8E1C8E1D8E80E0CB
:100C900090E0A0E0B0E08E8F9F8FA8A3B9A38AA3B5
:100CA0009BA3ACA3BDA38EA39FA3A8A7B9A7C75A14
:100CB000DF4F20E82993C882AB9689939993A99333
:100CC000B99389939993A993B9931992199281E051
:100CD00090E0899399938993999319921992198223
:100CE0001882C559D040EE20A9F480E090E0ACE72E
:100CF000B2E48E8F9F8FA8A3B9A380E090E4ADE407
:100D0000B4E48AA39BA3ACA3BDA380E090E0A6ECCF
:100D1000B2E414C080E090E0AAE9B2E48E8F9F8F25
:100D2000A8A3B9A380E090ECAFE6B4E48AA39BA3A8
:100D3000ACA3BDA380E090E0ADE2B3E48EA39FA39B
:100D4000A8A7B9A78FE792E040E855E260E070E01D
:100D50000E94910A888161E00E94C6088A8161E050
:100D60000E94C6088C8161E00E94C6088F8560E001
:100D70000E94C608898960E00E94C6088F8561E0EC
:100D80000E941909898961E00E94190985E08BA7F1
:100D90008BE58CA78FE48DA785E68EA78EE68FA7BF
:100DA0008EE788AB87E089AB8FE78AAB8FE68BABAA
:100DB0008FE38AA71CAAFE01EF58FF4F80E090E066
:100DC0001192119201968A309105D1F7CD55DF4FDE
:100DD0001882DF91CF91EF90CF900895F894FFCFD4
:100DE000FC0120E030E08081882311F421E030E034
:100DF000C9010895FC0181E0808308950895CF9290
:100E0000EF920F931F938EE491E064E070E045E071
:100E100050E026E030E00EE010E0EE24CC24C39455
:100E20000E9448051F910F91EF90CF9008958DE09B
:100E300061E00E94190968EC70E080E090E00E9497
:100E4000D6078DE060E00E94190968EC70E080E050
:100E500090E00E94D6078DE061E00E94190964E6E7
:100E600070E080E090E00E94D6078DE060E00E9494
:100E7000190964E670E080E090E00E94D6070895CA
:100E80008EE491E00E94C00408950E9406080E942A
:100E900040070E941707FDCF009711F00E94841BA6
:100EA00008950E94841B08950E94D71A08950E94F5
:100EB000D71A08951F920F920FB60F9211242F93F5
:100EC0003F938F939F93AF93BF938091F60190913F
:100ED000F701A091F801B091F9013091FA01019662
:100EE000A11DB11D232F2D5F2D3720F02D57019609
:100EF000A11DB11D2093FA018093F6019093F70193
:100F0000A093F801B093F9018091F2019091F3015F
:100F1000A091F401B091F5010196A11DB11D80933E
:100F2000F2019093F301A093F401B093F501BF9106
:100F3000AF919F918F913F912F910F900FBE0F9086
:100F40001F9018958FB7F8942091F6013091F70112
:100F50004091F8015091F9018FBFB901CA0108957C
:100F60009FB7F8942091F2013091F3014091F40180
:100F70005091F50186B5A89B06C08F3F21F02F5FE9
:100F80003F4F4F4F5F4F9FBF542F432F322F22278A
:100F9000280F311D411D511D82E0220F331F441FB8
:100FA000551F8A95D1F7B901CA010895EF92FF92B2
:100FB0000F931F93CF93DF937B018C010E94B007A7
:100FC000EB010EC00E94B0076C1B7D0B685E734086
:100FD000C8F30894E108F10801091109C851DC4F70
:100FE000E114F1040105110569F7DF91CF911F911B
:100FF0000F91FF90EF900895019739F0880F991F96
:10100000880F991F02970197F1F70895789484B596
:10101000826084BD84B5816084BD85B5826085BDF4
:1010200085B5816085BDEEE6F0E0808181608083DA
:10103000E1E8F0E0108280818260808380818160BD
:101040008083E0E8F0E0808181608083E1EBF0E084
:10105000808184608083E0EBF0E080818160808328
:10106000EAE7F0E080818460808380818260808311
:101070008081816080838081806880831092C1003C
:101080000895809319010895982F8E3008F09E508E
:101090009770809119018295880F880F807C892B29
:1010A00080937C0080917A00806480937A008091A4
:1010B0007A0086FDFCCF2091780040917900942F32
:1010C00080E030E0282B392BC90108951F93CF937E
:1010D000DF93182FEB0161E00E94C608209709F406
:1010E0004AC0CF3FD10509F449C0E12FF0E0E05DEF
:1010F000FE4F84918330C1F0843028F4813051F068
:101100008230B1F50CC0863019F1873049F1843056
:1011100079F514C084B5806884BDC7BD33C084B57B
:10112000806284BDC8BD2EC080918000806880939D
:101130008000D0938900C093880024C080918000F3
:10114000806280938000D0938B00C0938A001AC085
:101150008091B00080688093B000C093B30012C04B
:101160008091B00080628093B000C093B4000AC048
:10117000C038D1051CF4812F60E002C0812F61E0EE
:101180000E941909DF91CF911F910895482F50E0D7
:10119000CA01845E9E4FFC012491485F5E4FFA01B4
:1011A00084918823C1F0E82FF0E0EE0FFF1FE65195
:1011B000FF4FA591B491662341F49FB7F8948C91A9
:1011C000209582238C939FBF08959FB7F8948C91AC
:1011D000822B8C939FBF0895833071F0843028F464
:1011E0008130A1F0823021F514C08630B1F0873013
:1011F000D1F08430E9F404C0809180008F7703C07F
:10120000809180008F7D80938000089584B58F77D2
:1012100002C084B58F7D84BD08958091B0008F7722
:101220008093B00008958091B0008F7D8093B000CE
:101230000895FF920F931F93F62E482F50E0CA0196
:10124000805D9E4FFC012491CA01845E9E4FFC018B
:101250001491485F5E4FFA0104910023D9F02223D4
:1012600019F0822F0E94EC08E02FF0E0EE0FFF1F34
:10127000EC50FF4FA591B491FF2031F49FB7F89443
:101280008C911095812304C09FB7F8948C91812B89
:101290008C939FBF1F910F91FF9008950F931F9301
:1012A000482F50E0CA01805D9E4FFC012491CA0185
:1012B000845E9E4FFC010491485F5E4FFA011491D9
:1012C000112319F420E030E015C0222319F0822FF9
:1012D0000E94EC08812F90E0880F991F82509F4F49
:1012E000FC01A591B4918C9120E030E0802311F0B5
:1012F00021E030E0C9011F910F910895BF92CF9274
:10130000DF92EF92FF920F931F93CF93DF93E82E1C
:10131000F62EB42EC7E0D0E0022F10E087E0C82EF2
:10132000D12CBB2059F4B6016C1B7D0BC80102C047
:10133000959587956A95E2F7BC0107C0B8010C2E18
:1013400002C0759567950A94E2F761708E2D0E9430
:1013500019098F2D61E00E9419098F2D60E00E940C
:10136000190921979FEFCF3FD907D9F6DF91CF9188
:101370001F910F91FF90EF90DF90CF90BF90089555
:10138000CF92DF92EF92FF920F931F93CF93DF9351
:10139000F82E062FE42E10E0C7E0D0E097E0C92E2B
:1013A000D12C802F61E00E941909EE2061F48F2D6D
:1013B0000E944E0996012C1B3D0B02C0880F991FFD
:1013C0002A95E2F709C08F2D0E944E090C2E02C00B
:1013D000880F991F0A94E2F7182B802F60E00E9473
:1013E000190921978FEFCF3FD807D9F6812FDF91C9
:1013F000CF911F910F91FF90EF90DF90CF900895C4
:101400001F920F920FB60F9211242F933F934F9379
:101410008F939F93EF93FF934091C600E0917B02DF
:10142000F0917C0231969F012F7730703197809137
:101430007D0290917E022817390739F0E550FE4F62
:10144000408330937C0220937B02FF91EF919F9128
:101450008F914F913F912F910F900FBE0F901F9042
:1014600018958F92AF92CF92DF92EF92FF920F93E7
:101470001F93DF93CF93CDB7DEB7FC0184E291E0F9
:101480009183808373836283558344833783268368
:1014900011870087F386E286D586C486A68687866E
:1014A0008D85808B8E85818B8F85828BCF91DF910F
:1014B0001F910F91FF90EF90DF90CF90AF908F90A2
:1014C00008958F92AF92CF92DF92EF92FF920F9397
:1014D0001F93DF93CF93CDB7DEB7FC0184E291E099
:1014E0009183808373836283558344833783268308
:1014F00011870087F386E286D586C486A68687860E
:101500008D85808B8E85818B8F85828BCF91DF91AE
:101510001F910F91FF90EF90DF90CF90AF908F9041
:101520000895CF93DF93EC019A01AB01E885F9852B
:10153000203081EE380780E0480780E0580709F442
:1015400045C081E090E00A8802C0880F991F0A9484
:10155000E2F7808360E079E08DE390E00E94801AFA
:10156000215030404040504056954795379527953B
:10157000EC81FD813083EE81FF812083EA85FB854C
:10158000208141E050E0CA010E8402C0880F991FFB
:101590000A94E2F7282B2083EA85FB852081CA0183
:1015A0000F8402C0880F991F0A94E2F7282B20832A
:1015B000EA85FB858081088802C0440F551F0A9484
:1015C000E2F7842B8083DF91CF910895108220E190
:1015D00030E0CECFFC01A285B3854C9121E030E014
:1015E000C901068402C0880F991F0A94E2F780950A
:1015F00084238C93A285B3854C91C901078402C0D2
:10160000880F991F0A94E2F7809584238C93A28512
:10161000B3858C91008802C0220F331F0A94E2F731
:10162000209528232C930895DC011296ED91FC91CE
:101630001397E058FF4F2191319180819181281BB0
:10164000390B2F773070C9010895DC011296ED91A6
:10165000FC911397EE57FF4F208131819291829137
:10166000E058F0408217930719F42FEF3FEF05C0C1
:10167000E20FF31F8081282F30E0C9010895DC01BB
:101680001296ED91FC911397DF01AE57BF4F2D914C
:101690003C911197E058FF4F80819181E058F040D4
:1016A0008217930719F42FEF3FEF0BC0E20FF31FE0
:1016B00080812F5F3F4F2F7730702D933C93282FE1
:1016C00030E0C9010895DC011296ED91FC91139769
:1016D000EE57FF4F80819181929382930895FC0190
:1016E000A085B18521898C9190E0022E02C095954C
:1016F00087950A94E2F780FFF6CF0484F585E02D04
:101700006083089584E291E09093800280937F0249
:101710008BEF91E0909382028093810285EC90E0C0
:10172000909384028093830284EC90E090938602ED
:101730008093850280EC90E09093880280938702EA
:1017400081EC90E090938A028093890286EC90E08D
:1017500090938C0280938B0284E080938D0283E0CF
:1017600080938E0287E080938F0285E080939002C1
:1017700081E08093910208950F931F93CF93DF939D
:101780008C01EB0109C02196D801ED91FC910190EB
:10179000F081E02DC801099568816623A1F7DF91EA
:1017A000CF911F910F910895EF92FF920F931F9386
:1017B000CF93DF938C017B01EA010CC0D7016D91BF
:1017C0007D01D801ED91FC910190F081E02DC801DF
:1017D00009952197209791F7DF91CF911F910F9154
:1017E000FF90EF900895DC01ED91FC910280F38170
:1017F000E02D09950895CF92DF92EF92FF920F931B
:101800001F93CF93DF936C017B01C0E0D0E00EC04B
:10181000D601ED91FC9100811181C701BE010E94AA
:10182000BD0E682FC601F80109952196F701848144
:101830009581C817D90760F3DF91CF911F910F9160
:10184000FF90EF90DF90CF9008952F923F924F92AC
:101850005F926F927F928F929F92AF92BF92CF9240
:10186000DF92EF92FF920F931F93DF93CF93CDB749
:10187000DEB7A0970FB6F894DEBF0FBECDBF1C0138
:101880006A017B01411551056105710549F440E389
:1018900050E060E070E020E030E00E94EF0C54C0C7
:1018A000882499245401422E55246624772401E08B
:1018B00010E00C0F1D1F080D191DC701B601A30173
:1018C00092010E94801AF80160830894811C911C87
:1018D000A11CB11CC701B601A30192010E94801A8C
:1018E000C901DA016C017D01C114D104E104F104E4
:1018F000F1F681E0E82EF12CEC0EFD1EE80CF91C4F
:101900003E010894611C711CD501C4010197A10915
:10191000B1096C01C818D90814C0F601EE0DFF1DFD
:1019200040814A3010F4405D01C0495C50E060E005
:1019300070E0C10120E030E00E94EF0C0894E10863
:10194000F1086E147F0449F7A0960FB6F894DEBF35
:101950000FBECDBFCF91DF911F910F91FF90EF9000
:10196000DF90CF90BF90AF909F908F907F906F90BF
:101970005F904F903F902F900895DC012115310525
:1019800041F4ED91FC910190F081E02D642F0995D7
:1019900008950E94250C0895EF92FF920F931F93D4
:1019A0009A017B0100E010E0B801A7010E94BD0C84
:1019B0001F910F91FF90EF900895EF92FF920F9378
:1019C0001F939A01E62EFF2400E010E0B801A70162
:1019D0000E94BD0C1F910F91FF90EF900895EF9220
:1019E000FF920F931F93CF93DF93EC017A018B014A
:1019F0002115310541F4E881F9810190F081E02D54
:101A0000642F09951BC02A303105B1F477FF10C04F
:101A10004DE250E060E070E020E030E00E94EF0C2A
:101A200010950095F094E094E11CF11C011D111D2E
:101A3000CE01B801A7012AE00E94250CDF91CF91C9
:101A40001F910F91FF90EF900895EF92FF920F93E7
:101A50001F937B019A010027F7FC0095102FB80116
:101A6000A7010E94EF0C1F910F91FF90EF90089536
:101A7000EF92FF920F931F939A01E62EFF2400E04E
:101A800010E0B801A7010E94EF0C1F910F91FF9089
:101A9000EF9008950F931F938C014DE050E060E0AC
:101AA00070E020E030E00E94EF0CC8014AE050E016
:101AB00060E070E020E030E00E94EF0C1F910F9199
:101AC00008950F931F938C010E94BD0CC8010E94C2
:101AD0004A0D1F910F910895CF92DF92EF92FF92DE
:101AE0000F931F938C019A016B01EE24FF24B70121
:101AF000A6010E94BD0CC8010E944A0D1F910F91C2
:101B0000FF90EF90DF90CF900895CF92DF92EF9209
:101B1000FF920F931F938C019A01C62EDD24EE24B1
:101B2000FF24B701A6010E94BD0CC8010E944A0D06
:101B30001F910F91FF90EF90DF90CF9008950F933A
:101B40001F938C010E94F30BC8010E944A0D1F9144
:101B50000F9108950F931F938C010E94FB0BC801F6
:101B60000E944A0D1F910F9108950F931F938C01AE
:101B70000E94EF0CC8010E944A0D1F910F91089519
:101B8000CF92DF92EF92FF920F931F938C016B0124
:101B90009A01EE24D7FCE094FE2CB701A6010E9426
:101BA000EF0CC8010E944A0D1F910F91FF90EF901A
:101BB000DF90CF900895CF92DF92EF92FF920F9334
:101BC0001F938C019A01C62EDD24EE24FF24B70159
:101BD000A6010E94EF0CC8010E944A0D1F910F91AF
:101BE000FF90EF90DF90CF9008959F92AF92BF92B9
:101BF000CF92DF92EF92FF920F931F93CF93DF93D9
:101C0000EC017A018B01922ECB01BA0120E030E089
:101C100040E050E00E94061788236CF4CE014DE2AC
:101C200050E060E070E020E030E00E94EF0C17FB35
:101C3000109517F9109520E030E040E05FE3AA240A
:101C40000BC0CA01B90120E030E040E251E40E943B
:101C50000A179B01AC01A394A91498F3C801B7011A
:101C60000E949D165B016C010E9478177B018C011C
:101C7000CE01B801A7012AE030E00E94BD0C9920F6
:101C800029F0CE0166E171E00E94F30BC801B701B3
:101C90000E94A4179B01AC01C601B5010E949C16CD
:101CA00022C020E030E040E251E40E945B187B015A
:101CB0008C010E9473175B016C01CC24B7FCC094AB
:101CC000DC2CCE01B601A5012AE030E00E94EF0C29
:101CD000C601B5010E94A6179B01AC01C801B7015E
:101CE0000E949C169A949920E1F6DF91CF911F9162
:101CF0000F91FF90EF90DF90CF90BF90AF909F90AB
:101D000008950E94F50D08950F931F938C010E9472
:101D1000F50DC8010E944A0D1F910F910895FC0115
:101D20000190F081E02DE60FF71F80810895DC011E
:101D3000ED91FC911197309751F014968D919C91F3
:101D400015976817790718F4E60FF71F4083089571
:101D5000FC019B01848195816817790728F46081D3
:101D600071816115710529F41092920262E972E0A5
:101D700002C0620F731FCB010895FC010190F08136
:101D8000E02DE60FF71F80810895FC01808191818D
:101D90000E94AA1C08950F931F93CF93DF93FC0119
:101DA0008B0141155105A1F06115710589F0848100
:101DB0009581EA0121978C179D0708F4EC01608159
:101DC0007181C801AE010E94261DC00FD11F18826B
:101DD000DF91CF911F910F9108950F931F93CF9390
:101DE000DF93FC018B0141155105A1F061157105CF
:101DF00089F084819581EA0121978C179D0708F469
:101E0000EC0160817181C801AE010E94261DC00FE6
:101E1000D11F1882DF91CF911F910F9108950F93D9
:101E20001F938C01FC01808191810E94841BF80129
:101E300013821282158214821F910F910895FC0162
:101E4000DB0114962D913C91159784819581821B1D
:101E5000930B8417950710F480E008958081918199
:101E60006D917C91840F951FA9010E94181D9C0102
:101E700080E0232B09F481E00895FC01DB0124813B
:101E8000358114968D919C9115972817390710F478
:101E900080E00895CF0140E050E00E941F0F0895B8
:101EA000DF92EF92FF920F931F93CF93DF93EC019A
:101EB0008C819D8148175907B8F47A010894E11C78
:101EC000F11CE881F981EE0DFF1DD08010820881A0
:101ED0001981C80170E00E94351D9C010E0D1F1D67
:101EE000F801D082009719F4EFEFFFEF05C0888169
:101EF0009981F901E81BF90BCF01DF91CF911F9177
:101F00000F91FF90EF90DF900895FC01448155817F
:101F1000415050400E94500F0895CF93DF93FC0131
:101F2000DB01848195814817590760F4C081D18114
:101F30006D917C91CE01840F951F0E94401D9C01E4
:101F4000009719F42FEF3FEF02C02C1B3D0BC90186
:101F5000DF91CF91089540E050E00E948D0F0895E9
:101F6000CF93DF93FC01848195814817590758F47A
:101F7000C081D181CE01840F951F70E00E94FD1CAD
:101F80009C01009719F42FEF3FEF02C02C1B3D0B73
:101F9000C901DF91CF91089540E050E00E94B00F59
:101FA0000895DC01FB0114962D913C9115978481D5
:101FB00095812817390711F080E0089560817181BB
:101FC0008D919C910E94081D9C0180E0232B09F4B7
:101FD00081E00895FC01DB012481358114968D9107
:101FE0009C9115972817390710F480E00895281B55
:101FF000390B808191816D917C91820F931F0E949A
:10200000081D9C0180E0232B09F481E00895DC0188
:10201000FB01608171818D919C910E94081D292F87
:10202000332727FD3095209530952227330F221F27
:102030003327C9010895DC01FB01608171818D9115
:102040009C910E94081D40E050E01816190614F0FB
:1020500041E050E0CA010895DC01FB01608171811B
:102060008D919C910E94081D40E050E018161906C1
:1020700014F441E050E0CA010895DC01FB016081E5
:1020800071818D919C910E94081D292F332727FD76
:1020900030952227330F221F3327C9010895DC0111
:1020A000FB0114962D913C911597848195812817F9
:1020B000390751F4608171818D919C910E94081DB6
:1020C0009C0180E0232B09F081E090E00895DC0181
:1020D000FB0114962D913C911597848195812817C9
:1020E000390711F080E00BC0608171818D919C9166
:1020F0000E94081D9C0180E0232B09F481E090E000
:102100000895FC01DB016D917C91808191810E9499
:10211000081D08950F931F93CF93DF93EC018B015C
:10212000FB01648175818C819D81680F791F7D839E
:102130006C838A819B8186179707B8F46F5F7F4F06
:10214000888199810E94DC1B4C815D81009729F078
:10215000998388835B834A8308C0F80184819581D1
:10216000481B590B5D834C8307C0F8016081718166
:10217000888199810E94F21CCE01DF91CF911F913D
:102180000F9108950E948A100895CF93DF93EC0178
:10219000CB017B836A8301960E94D71A9983888337
:1021A000009721F41B821A821D821C82DF91CF913D
:1021B00008950F931F93CF93DF93EC018B01861744
:1021C000970709F1FB01248135818C819D8182175C
:1021D000930750F4888199810E94841BF8016481DF
:1021E0007581CE010E94C5102881398121153105E4
:1021F00051F0F801848195819D838C836081718188
:10220000C9010E94111DCE01DF91CF911F910F9145
:1022100008951F93CF93DF93EC01162F81E090E098
:102220009D838C83CE0161E070E00E94C510E8813F
:10223000F981309721F01083E881F9811182DF91D3
:10224000CF911F9108951F93CF93DF93EC01162F29
:1022500081E090E09D838C83CE0161E070E00E947C
:10226000C510E881F981309721F01083E881F98168
:102270001182DF91CF911F9108951F93CF93DF9328
:10228000EC01162F81E090E09D838C83CE0161E00C
:1022900070E00E94C510E881F981309721F0108329
:1022A000E881F9811182DF91CF911F9108951F93E9
:1022B000CF93DF93EC01162F81E090E09D838C8318
:1022C000CE0161E070E00E94C510E881F98130978D
:1022D00021F01083E881F9811182DF91CF911F9164
:1022E00008950F931F93CF93DF938C01EB016C81C3
:1022F0007D81FC01758364830E94C510F801808193
:102300009181009721F0688179810E94111DDF91F0
:10231000CF911F910F9108950F931F93CF93DF9348
:102320008C01EB016C817D81FC01758364830E94CB
:10233000C510F80180819181009721F06881798131
:102340000E94111DDF91CF911F910F910895EF927F
:10235000FF920F931F93DF93CF93CDB7DEB7A19773
:102360000FB6F894DEBF0FBECDBF8C01CB01BA0112
:102370007E010894E11CF11CA7012AE030E00E94D4
:10238000C41DF70101900020E9F73197EE19FF090C
:10239000D8011596FC93EE931497C801BF010E94D3
:1023A000C510F80180819181009719F0B7010E9452
:1023B000111DA1960FB6F894DEBF0FBECDBFCF9111
:1023C000DF911F910F91FF90EF900895EF92FF9290
:1023D0000F931F93DF93CF93CDB7DEB7A1970FB6BF
:1023E000F894DEBF0FBECDBF8C01CB01BA017E01D8
:1023F0000894E11CF11CA7012AE030E00E94C41DF2
:10240000F70101900020E9F73197EE19FF09D80193
:102410001596FC93EE931497C801BF010E94C51056
:10242000F80180819181009719F0B7010E94111D78
:10243000A1960FB6F894DEBF0FBECDBFCF91DF914E
:102440001F910F91FF90EF900895EF92FF920F93DD
:102450001F93DF93CF93CDB7DEB7A1970FB6F89454
:10246000DEBF0FBECDBF8C019A0180E090E07E01FF
:102470000894E11CF11CA7010E94C41DF701019002
:102480000020E9F73197EE19FF09D8011596FC9362
:10249000EE931497C801BF010E94C510F801808116
:1024A0009181009719F0B7010E94111DA1960FB6F6
:1024B000F894DEBF0FBECDBFCF91DF911F910F917A
:1024C000FF90EF900895EF92FF920F931F93DF9389
:1024D000CF93CDB7DEB7A1970FB6F894DEBF0FBE8E
:1024E000CDBF8C019A0180E090E07E010894E11C50
:1024F000F11CA7010E94C41DF70101900020E9F71B
:102500003197EE19FF09D8011596FC93EE931497B5
:10251000C801BF010E94C510F80180819181009718
:1025200019F0B7010E94111DA1960FB6F894DEBFF5
:102530000FBECDBFCF91DF911F910F91FF90EF9014
:1025400008950F931F93CF93DF938C01EB016115D7
:10255000710511F4C8E1D1E0FE0101900020E9F716
:102560003197EC1BFD0BD8011596FC93EE93149755
:10257000C801BF010E94C510F801808191810097B8
:1025800019F0BE010E94111DDF91CF911F910F9193
:102590000895AF92BF92CF92DF92EF92FF920F9386
:1025A0001F93CF93DF93B82EA92E6B01C82FD92F7D
:1025B000FB0160817181CE010E94A112EE24FF24F3
:1025C0000EC0088119810E0D1F1DF801808190E059
:1025D0000E94E11CF80180830894E11CF11CF601C3
:1025E00084819581E816F90660F38B2D9A2DDF9191
:1025F000CF911F910F91FF90EF90DF90CF90BF9000
:10260000AF900895AF92BF92CF92DF92EF92FF9278
:102610000F931F93CF93DF93B82EA92E6B01C82F72
:10262000D92FFB0160817181CE010E94A112EE249D
:10263000FF240EC0088119810E0D1F1DF801808135
:1026400090E00E94D91CF80180830894E11CF11CE1
:10265000F60184819581E816F90660F38B2D9A2D99
:10266000DF91CF911F910F91FF90EF90DF90CF906E
:10267000BF90AF900895EF92FF920F931F93DF9357
:10268000CF93CDB7DEB72C970FB6F894DEBF0FBE51
:10269000CDBFFC017B018617970711F401E029C02B
:1026A00024813581DB0114968D919C911597281713
:1026B000390711F000E01DC0CE010196BF010E9454
:1026C000021309811A81CE010796B7010E940213F5
:1026D0006F817885C8010E94081D00E0009709F409
:1026E00001E0CE0107960E940F0FCE0101960E94D5
:1026F0000F0F802F2C960FB6F894DEBF0FBECDBF04
:10270000CF91DF911F910F91FF90EF900895CF929D
:10271000DF92EF92FF921F93CF93DF936C017B01C7
:10272000B9012417350710F4BA01A901D70114968D
:102730008D919C911597EB018617970708F4EC0192
:10274000D701ED91FC911197EC0FFD1F10811082C4
:102750006D917C91640F751FC6010E94A112D70173
:10276000ED91FC91EC0FFD1F1083C601DF91CF911D
:102770001F91FF90EF90DF90CF9008950F931F93DC
:102780008C01FB01248135810E948713C8011F91B0
:102790000F9108958F929F92AF92BF92CF92DF9246
:1027A000EF92FF920F931F93DF93CF9300D000D04F
:1027B00000D0CDB7DEB75C016B01DB0114968D91C3
:1027C0009C9115970097A1F101974817590780F13F
:1027D000F501848195814817590750F5ED91FC91D9
:1027E00000817A014E010894811C911C1FC0D50103
:1027F000ED91FC91EE0DFF1D80818017A1F4F60193
:10280000248135812E0D3F1DC401B501A7010E9411
:102810008713C401B6010E94D10F182FC4010E9472
:102820000F0F112341F40894E108F108F7FEDFCF00
:10283000EE24EA94FE2CC70126960FB6F894DEBF6C
:102840000FBECDBFCF91DF911F910F91FF90EF9001
:10285000DF90CF90BF90AF909F908F900895FC0134
:10286000DB014481558114968D919C911597481BED
:10287000590BCF010E94CA130895AF92BF92CF9215
:10288000DF92EF92FF920F931F93DF93CF9300D0CD
:1028900000D000D0CDB7DEB75C018B01DB016D91BC
:1028A0007C916115710521F4B8010E9471113EC03F
:1028B000CE0101960E94A112F801E480F580CC249B
:1028C000DD240EC0D801ED91FC91EC0DFD1D808141
:1028D00090E00E94D11C892B31F00894C11CD11CBE
:1028E000CE14DF0478F3ED80FE800BC0D801ED91AB
:1028F000FC91EE0DFF1D808190E00E94D11C892B80
:1029000031F00894E108F108CE14DF0478F308945C
:10291000E11CF11CC5018E010F5F1F4FB801A6011C
:1029200097010E948713C8010E940F0FC5012696C8
:102930000FB6F894DEBF0FBECDBFCF91DF911F91D0
:102940000F91FF90EF90DF90CF90BF90AF900895E0
:102950002F923F924F925F926F927F928F929F92AF
:10296000AF92BF92CF92DF92EF92FF920F931F939D
:10297000DF93CF93CDB7DEB768970FB6F894DEBF7D
:102980000FBECDBF3C01FB012A011901608171819D
:102990006115710521F4BF010E9471115AC07E01B9
:1029A0000894E11CF11CC7010E94A1128E01095F6D
:1029B0001F4FC80168E171E00E94A112D02EC12E04
:1029C0003DE0832E912C8C0E9D1E23E1A22EB12C76
:1029D000AC0EBD1E24C0C401B70140E050E0980118
:1029E0000E9487138D2D9C2DB4010E948A10C40172
:1029F0000E940F0F8D2D9C2DB1010E948A10F201B3
:102A000044815581400F511FC501B7010E94BE137B
:102A1000C701B5010E94D910C5010E940F0FC7015F
:102A2000B2010E94AB0F8C01FFEF8F3F9F0799F619
:102A30008D2D9C2DB7010E948A10C3016D2D7C2D18
:102A40000E9471118D2D9C2D0E940F0FC7010E94B5
:102A50000F0FC30168960FB6F894DEBF0FBECDBF4F
:102A6000CF91DF911F910F91FF90EF90DF90CF906A
:102A7000BF90AF909F908F907F906F905F904F909E
:102A80003F902F900895EF92FF920F931F93DF9343
:102A9000CF9300D000D000D0CDB7DEB77C01FB01D2
:102AA000142F022F608171816115710521F4BF011E
:102AB0000E94711119C0CE0101960E94A112898154
:102AC0009A8101C00083612F70E00E94FD1CFC010F
:102AD0000097C1F7C7018E010F5F1F4FB8010E9419
:102AE0007111C8010E940F0FC70126960FB6F89406
:102AF000DEBF0FBECDBFCF91DF911F910F91FF9031
:102B0000EF9008950F931F93CF93DF938C01EB0108
:102B10006115710511F4C8E1D1E0FE0101900020BA
:102B2000E9F73197EC1BFD0BD8011596FC93EE935A
:102B30001497C801BF010E94C510F80180819181DE
:102B4000009719F0BE010E94111DDF91CF911F91D6
:102B50000F910895EF92FF920F931F93DF93CF93FE
:102B6000CDB7DEB7A1970FB6F894DEBF0FBECDBFCD
:102B70008C01CB01BA017E010894E11CF11CA70174
:102B80000E947B1DF70101900020E9F73197EE19B3
:102B9000FF09D8011596FC93EE931497C801BF0165
:102BA0000E94C510F80180819181009719F0B7014A
:102BB0000E94111DA1960FB6F894DEBF0FBECDBFC7
:102BC000CF91DF911F910F91FF90EF900895EF92B9
:102BD000FF920F931F93DF93CF93CDB7DEB7A197EB
:102BE0000FB6F894DEBF0FBECDBF8C01CB01BA018A
:102BF0007E010894E11CF11CA7010E947B1DF701D6
:102C000001900020E9F73197EE19FF09D8011596D8
:102C1000FC93EE931497C801BF010E94C510F80100
:102C200080819181009719F0B7010E94111DA19632
:102C30000FB6F894DEBF0FBECDBFCF91DF911F91CD
:102C40000F91FF90EF900895EF92FF920F931F93D3
:102C5000DF93CF93CDB7DEB7A1970FB6F894DEBF61
:102C60000FBECDBF8C01CB017E010894E11CF11C8D
:102C7000B7010E945A1DF70101900020E9F7319732
:102C8000EE19FF09D8011596FC93EE931497C8012D
:102C9000BF010E94C510F80180819181009719F051
:102CA000B7010E94111DA1960FB6F894DEBF0FBEAA
:102CB000CDBFCF91DF911F910F91FF90EF900895BD
:102CC000EF92FF920F931F93DF93CF93CDB7DEB7B1
:102CD000A1970FB6F894DEBF0FBECDBF8C01CB011C
:102CE0007E010894E11CF11CB7010E945A1DF701F6
:102CF00001900020E9F73197EE19FF09D8011596E8
:102D0000FC93EE931497C801BF010E94C510F8010F
:102D100080819181009719F0B7010E94111DA19641
:102D20000FB6F894DEBF0FBECDBFCF91DF911F91DC
:102D30000F91FF90EF9008955058BB27AA270ED00F
:102D40007BC16CD130F071D120F031F49F3F11F490
:102D50001EF461C10EF4E095E7FB57C1E92F7DD168
:102D600080F3BA17620773078407950718F099F480
:102D7000C6F595C10EF4E0950B2EBA2FA02D062EA8
:102D8000622F202D072E732F302D082E842F402DDB
:102D9000092E952F502DFF27591B99F0593F50F4BC
:102DA000503E68F11A16F040A22F232F342F4427EB
:102DB000585FF3CF469537952795A795F0405395E3
:102DC000C9F77EF41F16BA0B620B730B840BBAF0B3
:102DD0009150A1F0FF0FBB1F661F771F881FC2F71E
:102DE0000EC0BA0F621F731F841F48F48795779532
:102DF0006795B795F7959E3F08F0AECF9395880FEE
:102E000008F09927EE0F979587950895DAD008F482
:102E100081E008950CD010C108D140F0FFD030F00F
:102E200021F45F3F19F0F1C051113AC1F4C015D13E
:102E300098F39923C9F35523B1F3951B550BBB2781
:102E4000AA2762177307840738F09F5F5F4F220F2E
:102E5000331F441FAA1FA9F334D00E2E3AF0E0E826
:102E600031D091505040E695001CCAF72AD0FE2F71
:102E700028D0660F771F881FBB1F26173707480704
:102E8000AB07B0E809F0BB0B802D6E2F7F2FFF271B
:102E900093585F4F2AF09E3F510568F0B6C000C1BD
:102EA0005F3FECF3983EDCF3869577956795B79591
:102EB000F7959F5FC9F7880F911D9695879597F9AC
:102EC0000895E1E0660F771F881FBB1F6217730725
:102ED0008407BA0720F0621B730B840BBA0BEE1F3A
:102EE00088F7E095089504D06894B111D9C0089589
:102EF000BCD088F09F5790F0B92F9927B751A0F018
:102F0000D1F0660F771F881F991F1AF0BA95C9F77D
:102F100012C0B13081F0C3D0B1E00895C0C0672FB6
:102F2000782F8827B85F39F0B93FCCF3869577952D
:102F30006795B395D9F73EF4909580957095619516
:102F40007F4F8F4F9F4F0895E89409C097FB3EF441
:102F500090958095709561957F4F8F4F9F4F9923E6
:102F6000A9F0F92F96E9BB279395F6958795779564
:102F70006795B795F111F8CFFAF4BB0F11F460FF24
:102F80001BC06F5F7F4F8F4F9F4F16C0882311F07C
:102F900096E911C0772321F09EE8872F762F05C090
:102FA000662371F096E8862F70E060E02AF09A952B
:102FB000660F771F881FDAF7880F9695879597F920
:102FC0000895990F0008550FAA0BE0E8FEEF1616BA
:102FD0001706E807F907C0F012161306E407F5070D
:102FE00098F0621B730B840B950B39F40A2661F081
:102FF000232B242B252B21F408950A2609F4A14024
:10300000A6958FEF811D811D089597F99F6780E830
:1030100070E060E008959FEF80EC089500240A942A
:103020001616170618060906089500240A941216A3
:103030001306140605060895092E0394000C11F4D6
:10304000882352F0BB0F40F4BF2B11F460FF04C083
:103050006F5F7F4F8F4F9F4F089557FD9058440FDC
:10306000551F59F05F3F71F04795880F97FB991FE7
:1030700061F09F3F79F087950895121613061406A4
:10308000551FF2CF4695F1DF08C016161706180631
:10309000991FF1CF86957105610508940895E8940C
:1030A000BB2766277727862F972F97F9089589DF03
:1030B00008F48FEF08950AD0BFCFB0DF28F0B5DF56
:1030C00018F0952309F0A1CFA6CFEACFC6DFA8F369
:1030D0009923D9F35523C9F3950F50E0551FAA271B
:1030E000EE27FF27BB2700240894679520F4E20F02
:1030F000F31FB41F0A1E220F331F441FAA1F669519
:10310000A9F7779530F4F30FB41F0A1E121E08F4C6
:103110006395330F441FAA1F221F769599F7879551
:1031200020F4B40F0A1E121E631F440FAA1F221F91
:10313000331F8695A9F7862F712D602D11249F5777
:1031400050408AF0E1F088234AF0EE0FFF1FBB1FCA
:10315000661F771F881F91505040A9F79E3F510569
:1031600070F053CF9DCF5F3FECF3983EDCF3869534
:1031700077956795B795F795E7959F5FC1F7FE2B14
:10318000880F911D9695879597F90895E42FF52F4F
:10319000EE0FFF1F309621053105A1F16115710574
:1031A00061F48038BFE39B0751F168949038810542
:1031B00061F08038BFEF9B0741F099234AF5FF3F4C
:1031C000E1053105210519F1E8940894E795A22F4E
:1031D000B32FAA2329F4AB2FBE2FF85FD0F310C072
:1031E000FF5F70F4A695E0F7F73950F019F0FF3A59
:1031F00038F49F779F930CD00F9007FC9058089558
:103200003EF009CF60E070E080E89FE308954FE76B
:103210009F775F934F933F932F93B2D02F913F911E
:103220004F915F9148DF05C019F40EF0EECE37CF15
:10323000F2CE1BDFC8F39638C0F707F80F92E89478
:103240002BE33AEA48EB5FE743DF0F920F920F92CE
:103250004DB75EB70F92D9D0E8E6F0E016D04F91A7
:103260005F91EF91FF91E595EE1FFF1F49F0FE572B
:10327000E0684427EE0F441FFA95E1F74195550B9E
:1032800046D00F9007FE38C00895DF93CF931F9369
:103290000F93FF92EF92DF92E62EF72E082F192F51
:1032A000689407C0DA2ECE2FDF2F10DFEC2FFD2F12
:1032B000E894C895A02D3196C895202D3196C895D3
:1032C000302D3196C895402D3196C895502D3196A8
:1032D0004EF3CE2FDF2F42DDEC2FFD2F2E2D3F2D75
:1032E000402F512FDA94F9F6DF90EF90FF900F9175
:1032F0001F91CF91DF910895262F372F482F592FF7
:1033000060E070E080E89FE385CD7FCEB7C0ADDEA2
:10331000E8F39923D9F3940F511DBBF3915050401A
:1033200094F059F0882332F0660F771F881F915070
:103330005040C1F79E3F510544F7880F911D969567
:10334000879597F908955F3FACF0983E9CF0BB27B6
:10335000869577956795B79508F4B1609395C1F711
:10336000BB0F58F711F460FFE8CF6F5F7F4F8F4FAF
:103370009F4FE3CF95CE0EF081C04DCE689445CEE1
:1033800074DEC8F39923D1F3C6F3DF93CF931F9371
:103390000F93FF92C92FDD2788232AF02197660F0C
:1033A000771F881FDAF720E030E040E85FEB9FE30B
:1033B000883920F0803E30F021968F77BEDCE0E93E
:1033C000F0E003C0BADCEDEBF0E05FDF062F172F73
:1033D0006C2F7D2FC82FD92FFB2E6F577109759534
:1033E000771F880B990BB2DD28E132E741E35FE3F9
:1033F0006DDEAF2D202F312F4C2F5D2FFF900F91C1
:103400001F91CF91DF91AADC17CEE42FF52FA82FC3
:10341000B92FAA0FBB1F262F372F482F592FBF5761
:1034200028F4222733274427507821C0B75188F445
:10343000AB2F0024469537952795011CA395D2F311
:10344000002069F0220F331F441FB395DAF30FD029
:1034500073CC61307105A0E88A07B94640F4262F85
:10346000372F482F592F662777278827907830964F
:1034700021F0208331834283538308959F3F49F095
:10348000915028F4869577956795B7959F5F80381A
:103490009F4F880F9695879597F90895629FD00161
:1034A000739FF001829FE00DF11D649FE00DF11DFF
:1034B000929FF00D839FF00D749FF00D659FF00DAE
:1034C0009927729FB00DE11DF91F639FB00DE11D9B
:1034D000F91FBD01CF011124089597FB092E07267E
:1034E0000AD077FD04D049D006D000201AF4709598
:1034F00061957F4F0895F6F7909581959F4F0895B8
:10350000A1E21A2EAA1BBB1BFD010DC0AA1FBB1FE7
:10351000EE1FFF1FA217B307E407F50720F0A21B59
:10352000B30BE40BF50B661F771F881F991F1A94C6
:1035300069F760957095809590959B01AC01BD01F0
:10354000CF01089597FB092E05260ED057FD04D014
:10355000D7DF0AD0001C38F450954095309521955E
:103560003F4F4F4F5F4F0895F6F7909580957095B8
:1035700061957F4F8F4F9F4F0895AA1BBB1B51E151
:1035800007C0AA1FBB1FA617B70710F0A61BB70BD3
:10359000881F991F5A95A9F780959095BC01CD0178
:1035A0000895EE0FFF1F0590F491E02D0994CF933D
:1035B000DF93BC018230910510F462E070E0A091CD
:1035C0009502B0919602ED01E0E0F0E040E050E0BD
:1035D00021C0888199818617970769F48A819B8128
:1035E000309719F09383828304C09093960280935E
:1035F0009502FE0134C06817790738F4411551056A
:1036000019F08417950708F4AC01FE018A819B81AB
:103610009C01E9012097E9F641155105A9F1CA017C
:10362000861B970B049708F4BA01E0E0F0E02AC08B
:103630008D919C91119784179507F9F4641775077C
:1036400081F412968D919C911397309719F0938382
:10365000828304C09093960280939502FD01329676
:103660004FC0CA01861B970BFD01E80FF91F61933C
:10367000719302978D939C9343C0FD018281938146
:103680009C01D9011097A1F6809193029091940228
:10369000892B41F480911C0190911D01909394021B
:1036A0008093930240911E0150911F0141155105D5
:1036B00041F44DB75EB780911A0190911B01481BF0
:1036C000590B209193023091940224173507B0F4DE
:1036D000CA01821B930B8617970780F0AB014E5FE0
:1036E0005F4F8417950750F0420F531F5093940279
:1036F00040939302F9016193719302C0E0E0F0E01E
:10370000CF01DF91CF910895CF93DF93009709F414
:1037100050C0EC0122971B821A82A0919502B091B1
:103720009602109709F140E050E0AC17BD0708F190
:10373000BB83AA83FE0121913191E20FF31FAE17E3
:10374000BF0779F48D919C911197280F391F2E5F37
:103750003F4F3983288312968D919C9113979B83B9
:103760008A834115510571F4D0939602C093950256
:1037700020C012968D919C911397AD01009711F086
:10378000DC01D3CFFA01D383C28321913191E20FBF
:10379000F31FCE17DF0769F488819981280F391F3D
:1037A0002E5F3F4FFA01318320838A819B8193836F
:1037B0008283DF91CF910895A0E0B0E0E2EEFBE1DB
:1037C0000C94021E8C01009729F4CB010E94D71A99
:1037D0008C01BAC09EEFE92E9FEFF92EE00EF11E8C
:1037E0005801A60EB71EAE14BF0408F4ABC08EEF8E
:1037F000882E8FEF982E8A0C9B1CE70148815981F7
:1038000046175707B8F04530510508F49DC0CA0166
:1038100004978617970708F497C042505040461BFC
:10382000570BF4015183408379836883C5010E945B
:10383000841B8AC06B01C41AD50AE0919502F091ED
:103840009602A0E0B0E0C0E0D0E042C0E815F90583
:10385000A1F5208131812C153D0578F1C901029631
:103860008C159D05A8F04E5F5F4F420F531FE70177
:103870005983488322813381109729F013963C9312
:103880002E93129761C030939602209395025CC0EC
:10389000225030402C193D0931832083109729F0A4
:1038A0001396FC93EE93129704C0F0939602E09364
:1038B0009502F7017183608347C080819181C817A9
:1038C000D90708F4EC01DF01828193819C01F901A1
:1038D000309709F0BBCF400F511F80919302909118
:1038E000940284179507E9F4C617D707D0F42091FE
:1038F0001E0130911F012115310541F42DB73EB74E
:1039000080911A0190911B01281B390BA216B30656
:10391000C8F4B0929402A0929302E701798368837D
:1039200013C0CB010E94D71AEC01009759F0F701A0
:1039300040815181B8010E94E91CC8010E94841B8A
:103940008E0102C000E010E0C801CDB7DEB7ECE0A8
:103950000C941E1E1F93FC0199278827BC01E89434
:1039600011911032E9F3193010F01E30C8F31B32F8
:1039700051F01D3249F4689406C00E94AF1D610FDA
:10398000711D811D911D119110531A30B0F33EF439
:1039900090958095709561957F4F8F4F9F4F1F91A8
:1039A0000895911116C1803219F089508550D0F7D1
:1039B00008959111089581548A5108F4805E855AC2
:1039C00008959111089581568A5108F480528558BE
:1039D0000895FB01DC0102C001900D92415050405E
:1039E000D8F70895FB01DC010D900020E9F711974D
:1039F00001900D920020E1F70895FC018191861756
:103A000021F08823D9F7992708953197CF01089598
:103A1000FB01DC018D91019080190110D9F3990B04
:103A20000895FB01DC0101900D920020E1F708955B
:103A3000FB01DC014150504030F08D910190801924
:103A400019F40020B9F7881B990B0895FB01DC01DC
:103A50004150504048F001900D920020C9F701C03C
:103A60001D9241505040E0F70895FC0181E090E044
:103A70000190061609F4CF010020D1F701970895AF
:103A8000FB0151915523A9F0BF01DC014D91451770
:103A90004111E1F759F4CD010190002049F04D9119
:103AA00040154111C9F3FB014111EFCF81E090E0D6
:103AB00001970895FB019F01E8944230C4F045321C
:103AC000B4F44A3029F497FB1EF4909581959F4FEA
:103AD000642F77270E94BD1A805D8A330CF0895DC0
:103AE0008193CB010097A1F716F45DE25193108208
:103AF000C9010C94EC1DFA01CF93FF93EF93223090
:103B000044F1253234F5C22FE894CA3049F497FBCA
:103B10003EF490958095709561957F4F8F4F9F4FA4
:103B20002C2F332744275527FF93EF930E94801AA9
:103B3000EF91FF91605D6A330CF0695D6193B901AB
:103B4000CA01605070408040904051F716F4CDE2B9
:103B5000C19310828F919F91CF910C94EC1D592F9E
:103B6000482F372F262F660F771F881F991F660F44
:103B7000771F881F991F620F731F841F951F660F81
:103B8000771F881F991F0895FA01CF93FF93EF9332
:103B90002230CCF02532BCF4C22F2C2F33274427FF
:103BA0005527FF93EF930E94801AEF91FF91605D7C
:103BB0006A330CF0695D6193B901CA0160507040CD
:103BC0008040904051F710828F919F91CF910C943B
:103BD000EC1D992788270895DC01FC01672F71915E
:103BE0007723E1F7329704C07C916D9370836291E3
:103BF000AE17BF07C8F308952F923F924F925F927E
:103C00006F927F928F929F92AF92BF92CF92DF92EC
:103C1000EF92FF920F931F93CF93DF93CDB7DEB751
:103C2000CA1BDB0B0FB6F894DEBF0FBECDBF0994E5
:103C30002A88398848885F846E847D848C849B843C
:103C4000AA84B984C884DF80EE80FD800C811B814A
:103C5000AA81B981CE0FD11D0FB6F894DEBF0FBE79
:0A3C6000CDBFED010895F894FFCFE9
:103C6A00200053455454494E47204D415353205444
:103C7A004F3A3A3A20002E00000120009702000035
:103C8A00000000006F0BBC0BD40B140B3F0B250B71
:103C9A00630B00000000EE06BC0BD40BEE06EE062A
:0E3CAA00EE06EE0600000000EE06BC0BD40B8A
:00000001FF
